:100000000C9434000C943E000C943E000C943E0082
:100010000C943E000C943E000C943E000C943E0068
:100020000C943E000C943E000C943E000C943E0058
:100030000C943E000C943E000C943E000C943E0048
:100040000C943E000C943E000C943E000C943E0038
:100050000C943E000C943E000C943E000C943E0028
:100060000C943E000C943E0011241FBECFEFD8E04C
:10007000DEBFCDBF0E9440000C9473000C940000C2
:10008000209A81E095B1982795B92FE33DE093E060
:10009000215030409040E1F700C0000095B1982712
:1000A00095B92FE936E891E0215030409040E1F7D2
:1000B00000C0000095B1982795B92FE936E891E086
:1000C000215030409040E1F700C0000095B19827E2
:1000D00095B92FE936E891E0215030409040E1F7A2
:0A00E00000C00000CFCFF894FFCF5E
:00000001FF
